:1000000071C000008EC000008CC000008AC00000DB
:1000100088C0000086C0000084C0000082C00000CC
:1000200080C000007EC000007CC000007AC00000DC
:1000300078C0000076C0000074C0000072C00000EC
:1000400070C000006EC000006CC000006AC00000FC
:1000500068C0000066C0000064C0000062C000000C
:1000600060C000005EC000005CC000005AC000001C
:1000700058C0000056C0000054C0000052C000002C
:1000800050C000004EC000004CC000004AC000003C
:1000900048C0000046C0000044C0000042C000004C
:1000A00040C000003EC000003CC000003AC000005C
:1000B00038C0000036C0000034C0000032C000006C
:1000C00030C000002EC000002CC000002AC000007C
:1000D00028C0000026C0000024C0000022C000008C
:1000E00020C0000011241FBECFEFD1E2DEBFCDBF84
:1000F00000E00CBF12E0A0E0B2E0E0E4F0E100E0DC
:100100000BBF02C007900D92A632B107D9F722E0CB
:10011000A6E2B2E001C01D92A434B207E1F73CD5DB
:100120008DC76ECF86E69EE00197F1F700004098FC
:10013000419880E388B9429A8FEF97E40197F1F7ED
:1001400000C00000429886E69EE00197F1F70000AB
:100150004098419880E388B9429A8FEF97E40197DD
:10016000F1F700C00000429886E69EE00197F1F7A3
:1001700000004098419880E388B9429A8FEF97E455
:100180000197F1F700C00000429886E69EE00197D3
:10019000F1F700004098419880E288B9429A8FEFC9
:1001A00097E40197F1F700C000004298089598B1D4
:1001B0009F7098B998B1282F207F922B98B94098BA
:1001C0004198429AEFEFF7E43197F1F700C0000051
:1001D000429898B19F7098B998B18295807F892B89
:1001E00088B940984198429A8FEF97E40197F1F7C8
:1001F00000C000004298089586E69EE00197F1F75E
:10020000000088E2D4DF81E0D2DF86E0D0DF8EE03C
:10021000CEDF80E8CCCF089598B19F7098B998B19F
:10022000282F207F922B98B9409A4198429AEFEF5D
:10023000F7E43197F1F700C00000429898B19F7041
:1002400098B998B18295807F892B88B9409A419856
:10025000429A8FEF97E40197F1F700C000004298AF
:10026000089580E8A4CF0895CF93DF93EC018881AF
:10027000882329F02196D0DF89918111FCCFDF916D
:10028000CF910895823069F018F4813031F00895EB
:10029000833059F0843069F008958FE7860F87CF57
:1002A00008958FEB860F83CF089583E9860F7FCF64
:1002B000089583ED860F7BCF08950F931F93CF93FF
:1002C000DF938A01E901882311F0611102C0C9DFBF
:1002D00001C0D8DFC530D10509F0CDC098013295F5
:1002E00022952F7023273F702327A7E4B3E097D6EA
:1002F000969587959695879596958795C0969093B0
:1003000027028093260288DF980136952795369537
:10031000279536952795A5ECB0E281D6AC0152958C
:1003200042954F7045275F70452750932E024093AA
:100330002D029A01ADECBCEC72D6969587959695F8
:100340008795969587959C01220F331F880F991FDB
:10035000880F991F880F991F820F931F481B590BF5
:10036000CA01C09690933F0280933E0255DF04C0BD
:10037000C330D10509F084C098013695279536958C
:100380002795ABE7B4E14BD6AC0156954795509312
:100390002E0240932D029A01ADECBCEC40D696950E
:1003A000879596958795969587959C01220F331F83
:1003B000880F991F880F991F880F991F820F931F0D
:1003C000481B590BCA01C09690933A028093390298
:1003D00023DF9801ADECBCEC22D6AC0156954795D5
:1003E000569547955695479550932E0240932D026A
:1003F0009A0115D6969587959695879596958795A2
:100400009C01220F331F880F991F880F991F880F97
:10041000991F820F931F481B590BCA01C0969093D6
:10042000380280933702F8DE03C0C130D105F1F401
:100430009801ADECBCECF3D596958795969587958C
:10044000969587959C01220F331F880F991F880F5F
:10045000991F880F991F820F931F081B190BC80142
:10046000C09690933D0280933C02D6DE269764F0BE
:1004700085E4D2DE09C0C430D10509F079CF44CF7C
:10048000C230D10591F6A5CFDF91CF911F910F9189
:100490000895E1E8F0E010828CEF8093850081E020
:1004A0008093840093E0909389008FEF809388007D
:1004B00090938B0080938A0090938D0080938C00A2
:1004C00090938700809386008BEA8093800010923F
:1004D00082008CE08083089510928B0083E28093E9
:1004E0008A002FEF8FE796E1215080409040E1F79E
:1004F00000C00000109289008BE6809388002FEFE7
:100500008FE796E1215080409040E1F700C0000065
:1005100010928B0089E380938A002FEF8FE796E19A
:10052000215080409040E1F700C000001092890007
:1005300088E280938800089510928B0083E2809374
:100540008A000895109289008EE4809388002FEF2E
:100550008FE796E1215080409040E1F700C0000015
:1005600010928B0083E280938A002FEF8FE796E151
:10057000215080409040E1F700C0000010928900B7
:100580008EE2809388000895883018F098E0909368
:100590007B008770806280937C00EAE7F0E08081D6
:1005A00080648083808184FFFDCF80917900EAE7B9
:1005B000F0E090819061908310927B000895E4DFD9
:1005C000282F30E081E090E02830310514F480E0FD
:1005D00090E00895E1E2F1E010828FEF8093250131
:1005E00091E09093240110922901809328011092A8
:1005F0002B0180932A0110922D0180932C0189EA0E
:10060000809320018BE0808308959BB1907F8F7051
:10061000982B9BB9089585E0F8CF08958AE0F5CF2F
:10062000089589E0F2CF089586E0EFCF089581E044
:10063000ECCF089584E0E9CF089580E0E6CF0895F7
:100640008AB18F608AB98BB1807F8BB9EAE0F1E023
:10065000808188618083EBE0F1E080818861808324
:10066000089587B1876F87B988B1807888B9089570
:1006700010BA11BA10920701109208010895259A34
:100680002D9A0895269A2E9A0895DADFEADFF0DF90
:10069000F6DFF8CF0895EAE7F0E0108210927B00D1
:1006A00080E280937C0080E880BF86E880830895A4
:1006B000CF93DF93C82FD62F842F66DF809330022D
:1006C000482F50E023E030E06D2F8C2FF6DDDF91D6
:1006D000CF910895F894D9DFDCDE7CDFDCDF7894FD
:1006E000089541E062E082E0E3DF42E066E082E01C
:1006F000DFDF43E06AE082E0DBDF81E090E05FDFA4
:10070000892BA1F482E090E05ADF019779F483E02D
:1007100090E055DF892B51F47EDF809104029091A7
:1007200006029093280180932A01089581E090E0C9
:1007300046DF019791F482E090E041DF892B69F474
:1007400083E090E03CDF892B41F474DF809100026C
:100750001092280180932A01089581E090E02FDF14
:10076000892B91F482E090E02ADF892B69F483E001
:1007700090E025DF019741F45ADF809102028093D7
:10078000280110922A01089581E090E018DF892B5A
:1007900091F482E090E013DF019769F483E090E048
:1007A0000EDF019741F443DF80910202809328011C
:1007B00010922A01089581E090E001DF019789F409
:1007C00082E090E0FCDE019761F483E090E0F7DEE8
:1007D000892B39F42FDF8091000210922801809339
:1007E0002A0108958F929F92AF92BF92CF92DF928B
:1007F000EF92FF920F931F93CF93DF93C0E0D0E06F
:10080000082F10E00F2EF4E08F2EF2E09F2EF02D37
:100810000F2EF6E0AF2EF2E0BF2EF02D0F2EF8E2F5
:10082000CF2EDD24D394F02D0F2EFAE2EF2EFF24ED
:10083000F394F02D27C055DF82E0A6DE8134F8F076
:10084000219661E081E01EDD88E092E00DDD21E08F
:1008500030E0AE0169E081E030DDDDDEF401808171
:10086000F5019081F6019083F7018083F2E323E3A1
:1008700080E1F15020408040E1F700C000C0C01787
:10088000D10719F0C017D107B4F2D7DEEFEFFFE8B8
:100890003197F1F700C00000DF91CF911F910F91C8
:1008A000FF90EF90DF90CF90BF90AF909F908F9090
:1008B0000895EF92FF920F931F93CF93DF9361E020
:1008C00081E0E0DC80E192E0CFDC08E211E00F2E75
:1008D000F6E6EF2EF02DCAE2D1E00F2EF2EAFF2E5F
:1008E000F02D10C041E062E082E0E2DE42E066E02E
:1008F00082E0DEDE43E06AE082E0DADE95DEF801E7
:10090000E082F88281E090E05ADE892B59F38CDE98
:1009100086E68093280182EA80932A01F2E323E9A4
:1009200081E0F15020408040E1F700C000C085DE4A
:10093000DF91CF911F910F91FF90EF90089524DEEA
:10094000282F30E081E090E02333310514F480E07B
:1009500090E0089581E090E0F2DF0197A1F482E059
:1009600090E0EDDF892B79F483E090E0E8DF0197F8
:1009700051F451DE80910402909106029093280177
:1009800080932A01089581E090E0D9DF0197A1F4D6
:1009900082E090E0D4DF892B79F483E090E0CFDF30
:1009A000892B51F444DE80910002909102029093D1
:1009B000280180932A01089581E090E0C0DF01972B
:1009C000A1F482E090E0BBDF019779F483E090E04E
:1009D000B6DF892B51F42BDE809100029091020248
:1009E0009093280180932A01089581E090E0A7DF89
:1009F000892BA1F482E090E0A2DF892B79F483E0D7
:100A000090E09DDF019751F415DE809100029091F6
:100A100002029093280180932A01089581E090E0DA
:100A20008EDF892B99F482E090E089DF019771F4E1
:100A300083E090E084DF019749F4FCDD80910002BF
:100A4000909102029093280180932A0108958F9239
:100A50009F92AF92BF92CF92DF92EF92FF920F934D
:100A60001F93CF93DF938C01C0E0D0E00F2EF4E012
:100A70008F2EF2E09F2EF02D0F2EF6E0AF2EF2E03B
:100A8000BF2EF02D0F2EF8E2CF2EDD24D394F02DC3
:100A90000F2EFAE2EF2EFF24F394F02D3EC041E03A
:100AA00062E082E005DE42E066E082E001DE43E0F3
:100AB0006AE082E0FDDD4EDF81E090E040DF892BDF
:100AC00049F582E090E03BDF892B21F583E090E05F
:100AD00036DF892BF9F4219661E081E0D3DB88E0F1
:100AE00092E0C2DB21E030E0AE0169E081E0E5DBCD
:100AF00092DDF4018081F5019081F6019083F70188
:100B00008083FFEF2FE38BE0F15020408040E1F73E
:100B100000C00000C017D10721F0C017D10708F4AA
:100B2000BECF8BDDEFEFFFE83197F1F700C000009B
:100B3000DF91CF911F910F91FF90EF90DF90CF90B9
:100B4000BF90AF909F908F9008956BDD80910402CD
:100B5000909106029093280180932A012FEF8FEB4A
:100B60009AE2215080409040E1F700C0000065CD3E
:100B700008955ADD80910402909106029093280115
:100B800080932A012CEC8CE49AE221508040904022
:100B9000E1F700C052CD08959DDD2EDBC3DA10923F
:100BA00089008BE2809388002FEF8FE796E1215038
:100BB00080409040E1F700C0000010928B0083E27B
:100BC00080938A00EFEFFFE726E1E150F0402040FC
:100BD000E1F700C0000081E005DE6BDE81E002DEAF
:100BE00068DE22DD80910402909106029093280134
:100BF00080932A018FEF9FE80197F1F700C0000072
:100C00001CDD81E0EFDD07DD80910402909106029A
:100C10009093280180932A0199E9E9E5F1E0915048
:100C2000E040F040E1F7000090DF07DD55DC2FEFFA
:100C30008FE796E1215080409040E1F700C000002E
:100C4000F3DC809104029091060290932801809336
:100C50002A01ECECFCE024E0E150F0402040E1F718
:100C600000C027DE81E0BEDDE8DCDBDC8091040231
:100C7000909106029093280180932A018FEF9FEFB5
:100C8000ECE281509040E040E1F700C00000D5DC8C
:100C9000C2DC809104029091060290932801809317
:100CA0002A01F2E323E789E0F15020408040E1F798
:100CB00000C000C0C2DC40DC9FEFEFE7F6E19150DE
:100CC000E040F040E1F700C00000A8DC80910402A1
:100CD000909106029093280180932A012FEF8FEFC5
:100CE00098E0215080409040E1F700C00000A5DC72
:100CF0009BDC8091040290910602909328018093DE
:100D00002A01E9E9F9E722E0E150F0402040E1F76B
:100D100000002FDF81E066DD90DC2BDF8EDCDCDB8A
:100D20008FEF9FE7E6E181509040E040E1F700C09F
:100D3000000077DC809104029091060290932801D4
:100D400080932A01F6E626E283E0F15020408040BD
:100D5000E1F7FBDE72DC81E045DD81E043DD81E02F
:100D600041DDA7DD6ADC05DF5FDC80EF80932801D1
:100D70008AEF80932A019FEFEFE3F2E09150E04089
:100D8000F040E1F700C0000058DC45DC809104022F
:100D9000909106029093280180932A0122E383ED2B
:100DA0009CE0215080409040E1F700C000C045DC4D
:100DB000EFEFFFE724E0E150F0402040E1F700C012
:100DC000000081E090E043DE38DCD3DE27DC809158
:100DD0000402909106029093280180932A0186E6EE
:100DE00096EEE9E081509040E040E1F726DCAADB96
:100DF000FFEF2FE786E1F15020408040E1F700C08F
:100E00000000B7DE11DC80910402909106029093FD
:100E1000280180932A019FEFEFE7F4E09150E04032
:100E2000F040E1F700C0000008DCF5DB809104022F
:100E3000909106029093280180932A0129E989E97B
:100E40009CE0215080409040E1F70000F6DBEFEF9E
:100E5000FFE724E0E150F0402040E1F700C000004F
:100E600079DD8FEF9FE80197F1F700C0000081E086
:100E700090E065DD892BA1F782E090E060DD892BB1
:100E800079F783E090E05BDD892B51F7D6DB81E0D9
:100E9000A9DCC1DB809104029091060290932801A5
:100EA00080932A0199E9E9E9F3E09150E040F040AC
:100EB000E1F700000F2EF8E2EF2EFF24F394F02D5F
:100EC00006E9CAE2D1E014EB10C041E062E082E042
:100ED000EFDB42E066E082E0EBDB43E06AE082E0E9
:100EE000E7DB9FDBF7010083188383E090E067DB9B
:100EF000892B59F381E076DC8EDB8091040290919E
:100F000006029093280180932A01FFEF2FEB86E0E1
:100F1000F15020408040E1F700C0000016DE81DB88
:100F200080910402909106029093280180932A01F7
:100F30009FEFEFE3F2E09150E040F040E1F700C0B6
:100F400000007BDBC9DA15DE6FDB80910402909133
:100F500006029093280180932A012CEC8CE094E007
:100F6000215080409040E1F700C067DB81E03ADC2F
:100F7000ECDD57DB809104029091060290932801EA
:100F800080932A01E2E3F3EB22E0E150F0402040BD
:100F9000E1F700C000C051DB81E024DC3CDB809144
:100FA0000402909106029093280180932A018FEF0A
:100FB0009FE3EBE081509040E040E1F700C000008B
:100FC0003CDBBADAC2DD2DDB80910402909106028F
:100FD0009093280180932A01F9E929E983E0F150EF
:100FE00020408040E1F7000081E0FCDB41E062E06E
:100FF00082E05EDB42E066E082E05ADB43E06AE0EA
:1010000082E056DB41E062E082E052DB42E066E0F3
:1010100082E04EDB43E06AE082E04ADBF3CFA29F4E
:10102000B001B39FC001A39F700D811D1124911DBC
:10103000B29F700D811D1124911D0895F894FFCF6A
:10104000A0005F00CE00A000636F756E7461200089
:10105000496E73696465206C656674207475726E80
:0610600020776C73000014
:00000001FF
